:100000000C942A000C9447000C9447000C94470071
:100010000C9447000C9447000C9447000C94470044
:100020000C9447000C9447000C9447000C94470034
:100030000C9447000C9447000C9447000C94470024
:100040000C9447000C9447000C9447000C94470014
:100050000C94470011241FBECFE5D4E0DEBFCDBF16
:1000600010E0A0E6B0E0E6E9F2E002C005900D92F3
:10007000AC36B107D9F710E0ACE6B0E001C01D9294
:10008000AE36B107E1F70E94E7000C9449010C94E9
:1000900000001F93FC0186EC82BB84E085BB24EC4E
:1000A00039E0C9010197F1F715BAC9010197F1F7D4
:1000B000CF0168EE73E00E943501CB016AE070E089
:1000C0000E943501805D82BB15E015BBC901019717
:1000D000F1F741E045BBC9010197F1F7CF0164E6B3
:1000E00070E00E943501CB016AE070E00E943501AA
:1000F000805D82BB15BBC9010197F1F745BBC90102
:100100000197F1F7CF016AE070E00E943501CB0161
:100110006AE070E00E943501805D82BB15BBC901B9
:100120000197F1F745BBC9010197F1F7CF016AE0EB
:1001300070E00E943501805D82BB15BBC90101974B
:10014000F1F745BBC9010197F1F71F91089587B1F8
:10015000876087B9369A86B1349A84B195B1909305
:100160006D0080936C000E94490008953E9A86B10C
:10017000826886B9089588E382BB94E095BB24EC3D
:1001800039E0F9013197F1F715BAF9013197F1F733
:100190008CE082BB95BBF9013197F1F715BAF901F3
:1001A0003197F1F786E082BB95BBF9013197F1F702
:1001B00015BAF9013197F1F783E882BB95BBC90104
:1001C0000197F1F715BAC9010197F1F708958FEF7B
:1001D00081BB84BB0E94BB003E9A86B1826886B90F
:1001E000E0E6F0E055E024EC39E041E009C082BBF4
:1001F00055BBC9010197F1F745BBC9010197F1F75B
:1002000081918823A1F787E090E00E94A700FBCFAF
:1002100082BB84E085BB84EC99E0FC013197F1F767
:1002200015BA0197F1F7089582BB85E085BB24ECF0
:1002300039E0C9010197F1F781E085BBC901019758
:10024000F1F70895FC0155E024EC39E041E009C0E4
:1002500082BB55BBC9010197F1F745BBC9010197A5
:10026000F1F781918823A1F70895AA1BBB1B51E1E7
:1002700007C0AA1FBB1FA617B70710F0A61BB70B16
:10028000881F991F5A95A9F780959095BC01CD01BB
:060290000895F894FFCF71
:0C0296004144432056414C55453A3A0083
:00000001FF
