:100000000C942A000C9442000C9451000C9434007F
:100010000C9434000C9434000C9434000C94340090
:100020000C9434000C9434000C9434000C94340080
:100030000C9434000C9434000C9434000C94340070
:100040000C9434000C9434000C9434000C94340060
:100050000C94340011241FBECFE5D4E0DEBFCDBF29
:100060000E9460000C946F000C940000F8948AB712
:1000700080648ABF85B78F6085BF8BB7806C8BBF6C
:10008000789408951F920F920FB60F9211248F93B8
:1000900018BA8FEF8BBB8F910F900FBE0F901F90F0
:1000A00018951F920F920FB60F9211248F931BBABF
:1000B0008FEF88BB8F910F900FBE0F901F901895F8
:1000C0008FEF87BB8ABBF8948AB780648ABF85B7F5
:1000D0008F6085BF8BB7806C8BBF7894FFCFF8940F
:0200E000FFCF50
:00000001FF
