:100000000C942A000C9434000C9434000C943400AA
:100010000C9434000C9434000C9434000C94340090
:100020000C9434000C9434000C9434000C94340080
:100030000C9434000C9434000C9434000C94340070
:100040000C9434000C9434000C9434000C94340060
:100050000C94340011241FBECFE5D4E0DEBFCDBF29
:100060000E9436000C944F000C94000082E084BB88
:1000700022E064EC79E048EA51E6989B07C025BB92
:10008000CB010197F1F725BBCB0106C025BBCA0107
:100090000197F1F725BBCA010197F1F7EECFF8946C
:0200A000FFCF90
:00000001FF
