:100000000C942A000C9434000C9434000C943400AA
:100010000C9434000C9434000C9434000C94340090
:100020000C9434000C9434000C9434000C94340080
:100030000C9434000C9434000C9434000C94340070
:100040000C9434000C9434000C9434000C94340060
:100050000C94340011241FBECFE5D4E0DEBFCDBF29
:100060000E9436000C945E000C9400008FEF81BB60
:100070006FE029E130E050EF4FEF62BB80E197E2A3
:10008000F9013197F1F70197D9F752BB80E197E277
:10009000F9013197F1F70197D9F742BB80E197E277
:1000A000F9013197F1F70197D9F712BA80E197E298
:1000B000F9013197F1F70197D9F7DFCFF894FFCF26
:00000001FF
