:100000000C942A000C943F000C943F000C943F0089
:100010000C943F000C943F000C943F000C943F0064
:100020000C943F000C943F000C943F000C943F0054
:100030000C943F000C943F000C943F000C943F0044
:100040000C943F000C943F000C943F000C943F0034
:100050000C943F0011241FBECFE5D4E0DEBFCDBF1E
:1000600010E0A0E6B0E0E8EDF1E002C005900D92EE
:10007000AC36B107D9F70E946D000C94EA000C94DD
:10008000000088E388BB90E195BB20E23EE4F901E3
:100090003197F1F715BAF9013197F1F78CE088BB88
:1000A00095BBF9013197F1F715BAF9013197F1F7DD
:1000B00086E088BB95BBF9013197F1F715BAF901D4
:1000C0003197F1F780E888BB95BBC9010197F1F73B
:1000D00015BAC9010197F1F708958FEF87BB84BB6B
:1000E0000E9441008AB188618AB980B5866880BD66
:1000F00083E389B9E0E6F0E004C05D9BFECF8CB9F4
:10010000319680818823C9F751E120E23EE441E045
:100110005F9BFECF8CB188BB55BBC9010197F1F73E
:1001200045BBC9010197F1F7F3CF8AB188618AB95C
:1001300080B5866880BD83E389B908955F9BFECF53
:100140008CB188BB81E185BB20E23EE4C901019707
:10015000F1F781E085BBC9010197F1F708955D9B37
:10016000FECF8CB9089588BB80E185BB80E29EE418
:10017000FC013197F1F715BA0197F1F7089588BBA3
:1001800081E185BB20E23EE4C9010197F1F781E0FE
:1001900085BBC9010197F1F70895FC0151E120E207
:1001A0003EE441E009C088BB55BBC9010197F1F7A6
:1001B00045BBC9010197F1F781918823A1F7089503
:1001C000FC0104C05D9BFECF8CB9319680818823F1
:0801D000C9F70895F894FFCF70
:0C01D80068656C6C6F2055534152540058
:00000001FF
